{
  "_format": "hh-sol-artifact-1",
  "contractName": "ImmoToken",
  "sourceName": "contracts/immo_token.sol",
  "abi": [
    {
      "inputs": [],
      "stateMutability": "nonpayable",
      "type": "constructor"
    },
    {
      "anonymous": false,
      "inputs": [
        {
          "indexed": true,
          "internalType": "address",
          "name": "owner",
          "type": "address"
        },
        {
          "indexed": true,
          "internalType": "address",
          "name": "approved",
          "type": "address"
        },
        {
          "indexed": true,
          "internalType": "uint256",
          "name": "tokenId",
          "type": "uint256"
        }
      ],
      "name": "Approval",
      "type": "event"
    },
    {
      "anonymous": false,
      "inputs": [
        {
          "indexed": true,
          "internalType": "address",
          "name": "owner",
          "type": "address"
        },
        {
          "indexed": true,
          "internalType": "address",
          "name": "operator",
          "type": "address"
        },
        {
          "indexed": false,
          "internalType": "bool",
          "name": "approved",
          "type": "bool"
        }
      ],
      "name": "ApprovalForAll",
      "type": "event"
    },
    {
      "anonymous": false,
      "inputs": [
        {
          "indexed": true,
          "internalType": "address",
          "name": "previousOwner",
          "type": "address"
        },
        {
          "indexed": true,
          "internalType": "address",
          "name": "newOwner",
          "type": "address"
        }
      ],
      "name": "OwnershipTransferred",
      "type": "event"
    },
    {
      "anonymous": false,
      "inputs": [
        {
          "indexed": false,
          "internalType": "uint256",
          "name": "tokenId",
          "type": "uint256"
        },
        {
          "indexed": false,
          "internalType": "string",
          "name": "name",
          "type": "string"
        },
        {
          "indexed": false,
          "internalType": "string",
          "name": "location",
          "type": "string"
        },
        {
          "indexed": false,
          "internalType": "uint256",
          "name": "price",
          "type": "uint256"
        },
        {
          "indexed": false,
          "internalType": "string",
          "name": "metadataCid",
          "type": "string"
        }
      ],
      "name": "PropertyCreated",
      "type": "event"
    },
    {
      "anonymous": false,
      "inputs": [
        {
          "indexed": false,
          "internalType": "uint256",
          "name": "tokenId",
          "type": "uint256"
        },
        {
          "indexed": false,
          "internalType": "uint256",
          "name": "newPrice",
          "type": "uint256"
        }
      ],
      "name": "PropertyPriceUpdated",
      "type": "event"
    },
    {
      "anonymous": false,
      "inputs": [
        {
          "indexed": false,
          "internalType": "uint256",
          "name": "tokenId",
          "type": "uint256"
        },
        {
          "indexed": false,
          "internalType": "address",
          "name": "from",
          "type": "address"
        },
        {
          "indexed": false,
          "internalType": "address",
          "name": "to",
          "type": "address"
        }
      ],
      "name": "PropertyTransferred",
      "type": "event"
    },
    {
      "anonymous": false,
      "inputs": [
        {
          "indexed": true,
          "internalType": "address",
          "name": "from",
          "type": "address"
        },
        {
          "indexed": true,
          "internalType": "address",
          "name": "to",
          "type": "address"
        },
        {
          "indexed": true,
          "internalType": "uint256",
          "name": "tokenId",
          "type": "uint256"
        }
      ],
      "name": "Transfer",
      "type": "event"
    },
    {
      "inputs": [],
      "name": "COOLDOWN_TIME",
      "outputs": [
        {
          "internalType": "uint256",
          "name": "",
          "type": "uint256"
        }
      ],
      "stateMutability": "view",
      "type": "function"
    },
    {
      "inputs": [],
      "name": "LOCK_DURATION",
      "outputs": [
        {
          "internalType": "uint256",
          "name": "",
          "type": "uint256"
        }
      ],
      "stateMutability": "view",
      "type": "function"
    },
    {
      "inputs": [],
      "name": "MAX_PROPERTIES_PER_USER",
      "outputs": [
        {
          "internalType": "uint256",
          "name": "",
          "type": "uint256"
        }
      ],
      "stateMutability": "view",
      "type": "function"
    },
    {
      "inputs": [
        {
          "internalType": "address",
          "name": "to",
          "type": "address"
        },
        {
          "internalType": "uint256",
          "name": "tokenId",
          "type": "uint256"
        }
      ],
      "name": "approve",
      "outputs": [],
      "stateMutability": "nonpayable",
      "type": "function"
    },
    {
      "inputs": [
        {
          "internalType": "address",
          "name": "owner",
          "type": "address"
        }
      ],
      "name": "balanceOf",
      "outputs": [
        {
          "internalType": "uint256",
          "name": "",
          "type": "uint256"
        }
      ],
      "stateMutability": "view",
      "type": "function"
    },
    {
      "inputs": [
        {
          "internalType": "string",
          "name": "_name",
          "type": "string"
        },
        {
          "internalType": "string",
          "name": "_description",
          "type": "string"
        },
        {
          "internalType": "string",
          "name": "_location",
          "type": "string"
        },
        {
          "internalType": "uint256",
          "name": "_area",
          "type": "uint256"
        },
        {
          "internalType": "uint256",
          "name": "_price",
          "type": "uint256"
        },
        {
          "internalType": "string",
          "name": "_metadataCid",
          "type": "string"
        }
      ],
      "name": "createProperty",
      "outputs": [
        {
          "internalType": "uint256",
          "name": "",
          "type": "uint256"
        }
      ],
      "stateMutability": "nonpayable",
      "type": "function"
    },
    {
      "inputs": [
        {
          "internalType": "uint256",
          "name": "tokenId",
          "type": "uint256"
        }
      ],
      "name": "getApproved",
      "outputs": [
        {
          "internalType": "address",
          "name": "",
          "type": "address"
        }
      ],
      "stateMutability": "view",
      "type": "function"
    },
    {
      "inputs": [
        {
          "internalType": "address",
          "name": "_owner",
          "type": "address"
        }
      ],
      "name": "getOwnedProperties",
      "outputs": [
        {
          "internalType": "uint256[]",
          "name": "",
          "type": "uint256[]"
        }
      ],
      "stateMutability": "view",
      "type": "function"
    },
    {
      "inputs": [],
      "name": "getTotalProperties",
      "outputs": [
        {
          "internalType": "uint256",
          "name": "",
          "type": "uint256"
        }
      ],
      "stateMutability": "view",
      "type": "function"
    },
    {
      "inputs": [
        {
          "internalType": "address",
          "name": "owner",
          "type": "address"
        },
        {
          "internalType": "address",
          "name": "operator",
          "type": "address"
        }
      ],
      "name": "isApprovedForAll",
      "outputs": [
        {
          "internalType": "bool",
          "name": "",
          "type": "bool"
        }
      ],
      "stateMutability": "view",
      "type": "function"
    },
    {
      "inputs": [
        {
          "internalType": "uint256",
          "name": "",
          "type": "uint256"
        }
      ],
      "name": "lockTime",
      "outputs": [
        {
          "internalType": "uint256",
          "name": "",
          "type": "uint256"
        }
      ],
      "stateMutability": "view",
      "type": "function"
    },
    {
      "inputs": [],
      "name": "name",
      "outputs": [
        {
          "internalType": "string",
          "name": "",
          "type": "string"
        }
      ],
      "stateMutability": "view",
      "type": "function"
    },
    {
      "inputs": [],
      "name": "owner",
      "outputs": [
        {
          "internalType": "address",
          "name": "",
          "type": "address"
        }
      ],
      "stateMutability": "view",
      "type": "function"
    },
    {
      "inputs": [
        {
          "internalType": "uint256",
          "name": "tokenId",
          "type": "uint256"
        }
      ],
      "name": "ownerOf",
      "outputs": [
        {
          "internalType": "address",
          "name": "",
          "type": "address"
        }
      ],
      "stateMutability": "view",
      "type": "function"
    },
    {
      "inputs": [
        {
          "internalType": "uint256",
          "name": "",
          "type": "uint256"
        }
      ],
      "name": "properties",
      "outputs": [
        {
          "internalType": "string",
          "name": "name",
          "type": "string"
        },
        {
          "internalType": "string",
          "name": "description",
          "type": "string"
        },
        {
          "internalType": "string",
          "name": "location",
          "type": "string"
        },
        {
          "internalType": "uint256",
          "name": "area",
          "type": "uint256"
        },
        {
          "internalType": "uint256",
          "name": "price",
          "type": "uint256"
        },
        {
          "internalType": "string",
          "name": "metadataCid",
          "type": "string"
        },
        {
          "internalType": "uint256",
          "name": "createdAt",
          "type": "uint256"
        },
        {
          "internalType": "uint256",
          "name": "lastTransferAt",
          "type": "uint256"
        }
      ],
      "stateMutability": "view",
      "type": "function"
    },
    {
      "inputs": [
        {
          "internalType": "address",
          "name": "",
          "type": "address"
        }
      ],
      "name": "propertyCount",
      "outputs": [
        {
          "internalType": "uint256",
          "name": "",
          "type": "uint256"
        }
      ],
      "stateMutability": "view",
      "type": "function"
    },
    {
      "inputs": [
        {
          "internalType": "uint256",
          "name": "",
          "type": "uint256"
        }
      ],
      "name": "propertyToOwner",
      "outputs": [
        {
          "internalType": "address",
          "name": "",
          "type": "address"
        }
      ],
      "stateMutability": "view",
      "type": "function"
    },
    {
      "inputs": [
        {
          "internalType": "uint256",
          "name": "_tokenId",
          "type": "uint256"
        }
      ],
      "name": "purchaseProperty",
      "outputs": [],
      "stateMutability": "payable",
      "type": "function"
    },
    {
      "inputs": [],
      "name": "renounceOwnership",
      "outputs": [],
      "stateMutability": "nonpayable",
      "type": "function"
    },
    {
      "inputs": [
        {
          "internalType": "address",
          "name": "from",
          "type": "address"
        },
        {
          "internalType": "address",
          "name": "to",
          "type": "address"
        },
        {
          "internalType": "uint256",
          "name": "tokenId",
          "type": "uint256"
        }
      ],
      "name": "safeTransferFrom",
      "outputs": [],
      "stateMutability": "nonpayable",
      "type": "function"
    },
    {
      "inputs": [
        {
          "internalType": "address",
          "name": "from",
          "type": "address"
        },
        {
          "internalType": "address",
          "name": "to",
          "type": "address"
        },
        {
          "internalType": "uint256",
          "name": "tokenId",
          "type": "uint256"
        },
        {
          "internalType": "bytes",
          "name": "data",
          "type": "bytes"
        }
      ],
      "name": "safeTransferFrom",
      "outputs": [],
      "stateMutability": "nonpayable",
      "type": "function"
    },
    {
      "inputs": [
        {
          "internalType": "address",
          "name": "operator",
          "type": "address"
        },
        {
          "internalType": "bool",
          "name": "approved",
          "type": "bool"
        }
      ],
      "name": "setApprovalForAll",
      "outputs": [],
      "stateMutability": "nonpayable",
      "type": "function"
    },
    {
      "inputs": [
        {
          "internalType": "uint256",
          "name": "_tokenId",
          "type": "uint256"
        },
        {
          "internalType": "uint256",
          "name": "_newPrice",
          "type": "uint256"
        }
      ],
      "name": "setPropertyPrice",
      "outputs": [],
      "stateMutability": "nonpayable",
      "type": "function"
    },
    {
      "inputs": [
        {
          "internalType": "bytes4",
          "name": "interfaceId",
          "type": "bytes4"
        }
      ],
      "name": "supportsInterface",
      "outputs": [
        {
          "internalType": "bool",
          "name": "",
          "type": "bool"
        }
      ],
      "stateMutability": "view",
      "type": "function"
    },
    {
      "inputs": [],
      "name": "symbol",
      "outputs": [
        {
          "internalType": "string",
          "name": "",
          "type": "string"
        }
      ],
      "stateMutability": "view",
      "type": "function"
    },
    {
      "inputs": [
        {
          "internalType": "uint256",
          "name": "tokenId",
          "type": "uint256"
        }
      ],
      "name": "tokenURI",
      "outputs": [
        {
          "internalType": "string",
          "name": "",
          "type": "string"
        }
      ],
      "stateMutability": "view",
      "type": "function"
    },
    {
      "inputs": [
        {
          "internalType": "address",
          "name": "from",
          "type": "address"
        },
        {
          "internalType": "address",
          "name": "to",
          "type": "address"
        },
        {
          "internalType": "uint256",
          "name": "tokenId",
          "type": "uint256"
        }
      ],
      "name": "transferFrom",
      "outputs": [],
      "stateMutability": "nonpayable",
      "type": "function"
    },
    {
      "inputs": [
        {
          "internalType": "address",
          "name": "newOwner",
          "type": "address"
        }
      ],
      "name": "transferOwnership",
      "outputs": [],
      "stateMutability": "nonpayable",
      "type": "function"
    }
  ],
  "bytecode": "0x608060405234801561001057600080fd5b506040518060400160405280600981526020017f496d6d6f546f6b656e00000000000000000000000000000000000000000000008152506040518060400160405280600381526020017f5245540000000000000000000000000000000000000000000000000000000000815250816000908161008c91906103de565b50806001908161009c91906103de565b5050506100bb6100b06100c060201b60201c565b6100c860201b60201c565b6104b0565b600033905090565b6000600660009054906101000a900473ffffffffffffffffffffffffffffffffffffffff16905081600660006101000a81548173ffffffffffffffffffffffffffffffffffffffff021916908373ffffffffffffffffffffffffffffffffffffffff1602179055508173ffffffffffffffffffffffffffffffffffffffff168173ffffffffffffffffffffffffffffffffffffffff167f8be0079c531659141344cd1fd0a4f28419497f9722a3daafe3b4186f6b6457e060405160405180910390a35050565b600081519050919050565b7f4e487b7100000000000000000000000000000000000000000000000000000000600052604160045260246000fd5b7f4e487b7100000000000000000000000000000000000000000000000000000000600052602260045260246000fd5b6000600282049050600182168061020f57607f821691505b602082108103610222576102216101c8565b5b50919050565b60008190508160005260206000209050919050565b60006020601f8301049050919050565b600082821b905092915050565b60006008830261028a7fffffffffffffffffffffffffffffffffffffffffffffffffffffffffffffffff8261024d565b610294868361024d565b95508019841693508086168417925050509392505050565b6000819050919050565b6000819050919050565b60006102db6102d66102d1846102ac565b6102b6565b6102ac565b9050919050565b6000819050919050565b6102f5836102c0565b610309610301826102e2565b84845461025a565b825550505050565b600090565b61031e610311565b6103298184846102ec565b505050565b5b8181101561034d57610342600082610316565b60018101905061032f565b5050565b601f8211156103925761036381610228565b61036c8461023d565b8101602085101561037b578190505b61038f6103878561023d565b83018261032e565b50505b505050565b600082821c905092915050565b60006103b560001984600802610397565b1980831691505092915050565b60006103ce83836103a4565b9150826002028217905092915050565b6103e78261018e565b67ffffffffffffffff811115610400576103ff610199565b5b61040a82546101f7565b610415828285610351565b600060209050601f8311600181146104485760008415610436578287015190505b61044085826103c2565b8655506104a8565b601f19841661045686610228565b60005b8281101561047e57848901518255600182019150602085019450602081019050610459565b8683101561049b5784890151610497601f8916826103a4565b8355505b6001600288020188555050505b505050505050565b6141f4806104bf6000396000f3fe6080604052600436106101b75760003560e01c80637d263245116100ec578063cba43dc41161008a578063e8b23f6611610064578063e8b23f6614610637578063e985e9c514610674578063f2fde38b146106b1578063f7b10808146106da576101b7565b8063cba43dc414610592578063def57ecf146105bd578063e2859c57146105fa576101b7565b8063a22cb465116100c6578063a22cb465146104da578063b88d4fde14610503578063beb8354c1461052c578063c87b56dd14610555576101b7565b80637d263245146104595780638da5cb5b1461048457806395d89b41146104af576101b7565b806342842e0e116101595780636352211e116101335780636352211e146103ac57806370a08231146103e9578063715018a61461042657806379d9c4391461043d576101b7565b806342842e0e1461031b578063485d3834146103445780635bf8ceca1461036f576101b7565b8063095ea7b311610195578063095ea7b3146102615780630b56e3831461028a57806317aaf5ed146102c757806323b872dd146102f2576101b7565b806301ffc9a7146101bc57806306fdde03146101f9578063081812fc14610224575b600080fd5b3480156101c857600080fd5b506101e360048036038101906101de9190612838565b61071e565b6040516101f09190612880565b60405180910390f35b34801561020557600080fd5b5061020e610800565b60405161021b919061292b565b60405180910390f35b34801561023057600080fd5b5061024b60048036038101906102469190612983565b610892565b60405161025891906129f1565b60405180910390f35b34801561026d57600080fd5b5061028860048036038101906102839190612a38565b6108d8565b005b34801561029657600080fd5b506102b160048036038101906102ac9190612983565b6109ef565b6040516102be91906129f1565b60405180910390f35b3480156102d357600080fd5b506102dc610a22565b6040516102e99190612a87565b60405180910390f35b3480156102fe57600080fd5b5061031960048036038101906103149190612aa2565b610a33565b005b34801561032757600080fd5b50610342600480360381019061033d9190612aa2565b610a93565b005b34801561035057600080fd5b50610359610ab3565b6040516103669190612a87565b60405180910390f35b34801561037b57600080fd5b5061039660048036038101906103919190612af5565b610ab9565b6040516103a39190612a87565b60405180910390f35b3480156103b857600080fd5b506103d360048036038101906103ce9190612983565b610ad1565b6040516103e091906129f1565b60405180910390f35b3480156103f557600080fd5b50610410600480360381019061040b9190612af5565b610b57565b60405161041d9190612a87565b60405180910390f35b34801561043257600080fd5b5061043b610c0e565b005b61045760048036038101906104529190612983565b610c22565b005b34801561046557600080fd5b5061046e6110c9565b60405161047b9190612a87565b60405180910390f35b34801561049057600080fd5b506104996110cf565b6040516104a691906129f1565b60405180910390f35b3480156104bb57600080fd5b506104c46110f9565b6040516104d1919061292b565b60405180910390f35b3480156104e657600080fd5b5061050160048036038101906104fc9190612b4e565b61118b565b005b34801561050f57600080fd5b5061052a60048036038101906105259190612cc3565b6111a1565b005b34801561053857600080fd5b50610553600480360381019061054e9190612d46565b611203565b005b34801561056157600080fd5b5061057c60048036038101906105779190612983565b6112d1565b604051610589919061292b565b60405180910390f35b34801561059e57600080fd5b506105a7611357565b6040516105b49190612a87565b60405180910390f35b3480156105c957600080fd5b506105e460048036038101906105df9190612af5565b61135c565b6040516105f19190612e44565b60405180910390f35b34801561060657600080fd5b50610621600480360381019061061c9190612f07565b61148a565b60405161062e9190612a87565b60405180910390f35b34801561064357600080fd5b5061065e60048036038101906106599190612983565b611690565b60405161066b9190612a87565b60405180910390f35b34801561068057600080fd5b5061069b60048036038101906106969190613004565b6116a8565b6040516106a89190612880565b60405180910390f35b3480156106bd57600080fd5b506106d860048036038101906106d39190612af5565b61173c565b005b3480156106e657600080fd5b5061070160048036038101906106fc9190612983565b6117bf565b604051610715989796959493929190613044565b60405180910390f35b60007f80ac58cd000000000000000000000000000000000000000000000000000000007bffffffffffffffffffffffffffffffffffffffffffffffffffffffff1916827bffffffffffffffffffffffffffffffffffffffffffffffffffffffff191614806107e957507f5b5e139f000000000000000000000000000000000000000000000000000000007bffffffffffffffffffffffffffffffffffffffffffffffffffffffff1916827bffffffffffffffffffffffffffffffffffffffffffffffffffffffff1916145b806107f957506107f882611a27565b5b9050919050565b60606000805461080f9061310d565b80601f016020809104026020016040519081016040528092919081815260200182805461083b9061310d565b80156108885780601f1061085d57610100808354040283529160200191610888565b820191906000526020600020905b81548152906001019060200180831161086b57829003601f168201915b5050505050905090565b600061089d82611a91565b6004600083815260200190815260200160002060009054906101000a900473ffffffffffffffffffffffffffffffffffffffff169050919050565b60006108e382610ad1565b90508073ffffffffffffffffffffffffffffffffffffffff168373ffffffffffffffffffffffffffffffffffffffff1603610953576040517f08c379a000000000000000000000000000000000000000000000000000000000815260040161094a906131b0565b60405180910390fd5b8073ffffffffffffffffffffffffffffffffffffffff16610972611adc565b73ffffffffffffffffffffffffffffffffffffffff1614806109a157506109a08161099b611adc565b6116a8565b5b6109e0576040517f08c379a00000000000000000000000000000000000000000000000000000000081526004016109d790613242565b60405180910390fd5b6109ea8383611ae4565b505050565b600b6020528060005260406000206000915054906101000a900473ffffffffffffffffffffffffffffffffffffffff1681565b6000610a2e6007611b9d565b905090565b610a44610a3e611adc565b82611bab565b610a83576040517f08c379a0000000000000000000000000000000000000000000000000000000008152600401610a7a906132d4565b60405180910390fd5b610a8e838383611c40565b505050565b610aae838383604051806020016040528060008152506111a1565b505050565b61025881565b60086020528060005260406000206000915090505481565b600080610add83611f39565b9050600073ffffffffffffffffffffffffffffffffffffffff168173ffffffffffffffffffffffffffffffffffffffff1603610b4e576040517f08c379a0000000000000000000000000000000000000000000000000000000008152600401610b4590613340565b60405180910390fd5b80915050919050565b60008073ffffffffffffffffffffffffffffffffffffffff168273ffffffffffffffffffffffffffffffffffffffff1603610bc7576040517f08c379a0000000000000000000000000000000000000000000000000000000008152600401610bbe906133d2565b60405180910390fd5b600360008373ffffffffffffffffffffffffffffffffffffffff1673ffffffffffffffffffffffffffffffffffffffff168152602001908152602001600020549050919050565b610c16611f76565b610c206000611ff4565b565b3373ffffffffffffffffffffffffffffffffffffffff16610c4282610ad1565b73ffffffffffffffffffffffffffffffffffffffff1603610c98576040517f08c379a0000000000000000000000000000000000000000000000000000000008152600401610c8f9061343e565b60405180910390fd5b6004600860003373ffffffffffffffffffffffffffffffffffffffff1673ffffffffffffffffffffffffffffffffffffffff1681526020019081526020016000205410610d1a576040517f08c379a0000000000000000000000000000000000000000000000000000000008152600401610d11906134aa565b60405180910390fd5b6009600082815260200190815260200160002054421015610d70576040517f08c379a0000000000000000000000000000000000000000000000000000000008152600401610d6790613516565b60405180910390fd5b61012c600a600083815260200190815260200160002060080154610d949190613565565b421015610dd6576040517f08c379a0000000000000000000000000000000000000000000000000000000008152600401610dcd906135e5565b60405180910390fd5b600a600082815260200190815260200160002060040154341015610e2f576040517f08c379a0000000000000000000000000000000000000000000000000000000008152600401610e2690613677565b60405180910390fd5b6000610e3a82610ad1565b9050600a6000838152602001908152602001600020600601819080600181540180825580915050600190039060005260206000200160009091909190916101000a81548173ffffffffffffffffffffffffffffffffffffffff021916908373ffffffffffffffffffffffffffffffffffffffff16021790555042600a600084815260200190815260200160002060080181905550610ed9813384611c40565b33600b600084815260200190815260200160002060006101000a81548173ffffffffffffffffffffffffffffffffffffffff021916908373ffffffffffffffffffffffffffffffffffffffff160217905550600860003373ffffffffffffffffffffffffffffffffffffffff1673ffffffffffffffffffffffffffffffffffffffff1681526020019081526020016000206000815480929190610f7b90613697565b91905055506000600860008373ffffffffffffffffffffffffffffffffffffffff1673ffffffffffffffffffffffffffffffffffffffff16815260200190815260200160002054111561101e57600860008273ffffffffffffffffffffffffffffffffffffffff1673ffffffffffffffffffffffffffffffffffffffff1681526020019081526020016000206000815480929190611018906136df565b91905055505b6102584261102c9190613565565b60096000848152602001908152602001600020819055508073ffffffffffffffffffffffffffffffffffffffff166108fc349081150290604051600060405180830381858888f19350505050158015611089573d6000803e3d6000fd5b507f2231fc8bc2c20e26d85d66dc7f13a6b6d535c86d2a4d678bb2de61f5b71360838282336040516110bd93929190613708565b60405180910390a15050565b61012c81565b6000600660009054906101000a900473ffffffffffffffffffffffffffffffffffffffff16905090565b6060600180546111089061310d565b80601f01602080910402602001604051908101604052809291908181526020018280546111349061310d565b80156111815780601f1061115657610100808354040283529160200191611181565b820191906000526020600020905b81548152906001019060200180831161116457829003601f168201915b5050505050905090565b61119d611196611adc565b83836120ba565b5050565b6111b26111ac611adc565b83611bab565b6111f1576040517f08c379a00000000000000000000000000000000000000000000000000000000081526004016111e8906132d4565b60405180910390fd5b6111fd84848484612226565b50505050565b3373ffffffffffffffffffffffffffffffffffffffff1661122383610ad1565b73ffffffffffffffffffffffffffffffffffffffff1614611279576040517f08c379a0000000000000000000000000000000000000000000000000000000008152600401611270906137b1565b60405180910390fd5b80600a6000848152602001908152602001600020600401819055507ff73705cc3056ac9339b98dc8b7f9612e3851eb98f309b8bdff61cb3b0b34b9b482826040516112c59291906137d1565b60405180910390a15050565b60606112dc82612282565b61131b576040517f08c379a000000000000000000000000000000000000000000000000000000000815260040161131290613846565b60405180910390fd5b600a60008381526020019081526020016000206005016040516020016113419190613955565b6040516020818303038152906040529050919050565b600481565b60606000600860008473ffffffffffffffffffffffffffffffffffffffff1673ffffffffffffffffffffffffffffffffffffffff1681526020019081526020016000205467ffffffffffffffff8111156113b9576113b8612b98565b5b6040519080825280602002602001820160405280156113e75781602001602082028036833780820191505090505b509050600080600190505b6113fc6007611b9d565b811161147f578473ffffffffffffffffffffffffffffffffffffffff1661142282610ad1565b73ffffffffffffffffffffffffffffffffffffffff160361146c578083838151811061145157611450613977565b5b602002602001018181525050818061146890613697565b9250505b808061147790613697565b9150506113f2565b508192505050919050565b6000611494611f76565b60008251116114d8576040517f08c379a00000000000000000000000000000000000000000000000000000000081526004016114cf906139f2565b60405180910390fd5b6114e260076122c3565b60006114ee6007611b9d565b90506114fa33826122d9565b60606040518061012001604052808a815260200189815260200188815260200187815260200186815260200185815260200182815260200142815260200142815250600a600084815260200190815260200160002060008201518160000190816115649190613ba9565b50602082015181600101908161157a9190613ba9565b5060408201518160020190816115909190613ba9565b50606082015181600301556080820151816004015560a08201518160050190816115ba9190613ba9565b5060c08201518160060190805190602001906115d7929190612725565b5060e08201518160070155610100820151816008015590505033600b600084815260200190815260200160002060006101000a81548173ffffffffffffffffffffffffffffffffffffffff021916908373ffffffffffffffffffffffffffffffffffffffff1602179055507f8e9635c95152dfdc3ac5084cc2238d00e8b07fa64308e6d507e493116a45eb5e828a898888604051611679959493929190613c7b565b60405180910390a181925050509695505050505050565b60096020528060005260406000206000915090505481565b6000600560008473ffffffffffffffffffffffffffffffffffffffff1673ffffffffffffffffffffffffffffffffffffffff16815260200190815260200160002060008373ffffffffffffffffffffffffffffffffffffffff1673ffffffffffffffffffffffffffffffffffffffff16815260200190815260200160002060009054906101000a900460ff16905092915050565b611744611f76565b600073ffffffffffffffffffffffffffffffffffffffff168173ffffffffffffffffffffffffffffffffffffffff16036117b3576040517f08c379a00000000000000000000000000000000000000000000000000000000081526004016117aa90613d55565b60405180910390fd5b6117bc81611ff4565b50565b600a6020528060005260406000206000915090508060000180546117e29061310d565b80601f016020809104026020016040519081016040528092919081815260200182805461180e9061310d565b801561185b5780601f106118305761010080835404028352916020019161185b565b820191906000526020600020905b81548152906001019060200180831161183e57829003601f168201915b5050505050908060010180546118709061310d565b80601f016020809104026020016040519081016040528092919081815260200182805461189c9061310d565b80156118e95780601f106118be576101008083540402835291602001916118e9565b820191906000526020600020905b8154815290600101906020018083116118cc57829003601f168201915b5050505050908060020180546118fe9061310d565b80601f016020809104026020016040519081016040528092919081815260200182805461192a9061310d565b80156119775780601f1061194c57610100808354040283529160200191611977565b820191906000526020600020905b81548152906001019060200180831161195a57829003601f168201915b5050505050908060030154908060040154908060050180546119989061310d565b80601f01602080910402602001604051908101604052809291908181526020018280546119c49061310d565b8015611a115780601f106119e657610100808354040283529160200191611a11565b820191906000526020600020905b8154815290600101906020018083116119f457829003601f168201915b5050505050908060070154908060080154905088565b60007f01ffc9a7000000000000000000000000000000000000000000000000000000007bffffffffffffffffffffffffffffffffffffffffffffffffffffffff1916827bffffffffffffffffffffffffffffffffffffffffffffffffffffffff1916149050919050565b611a9a81612282565b611ad9576040517f08c379a0000000000000000000000000000000000000000000000000000000008152600401611ad090613340565b60405180910390fd5b50565b600033905090565b816004600083815260200190815260200160002060006101000a81548173ffffffffffffffffffffffffffffffffffffffff021916908373ffffffffffffffffffffffffffffffffffffffff160217905550808273ffffffffffffffffffffffffffffffffffffffff16611b5783610ad1565b73ffffffffffffffffffffffffffffffffffffffff167f8c5be1e5ebec7d5bd14f71427d1e84f3dd0314c0f7b2291e5b200ac8c7c3b92560405160405180910390a45050565b600081600001549050919050565b600080611bb783610ad1565b90508073ffffffffffffffffffffffffffffffffffffffff168473ffffffffffffffffffffffffffffffffffffffff161480611bf95750611bf881856116a8565b5b80611c3757508373ffffffffffffffffffffffffffffffffffffffff16611c1f84610892565b73ffffffffffffffffffffffffffffffffffffffff16145b91505092915050565b8273ffffffffffffffffffffffffffffffffffffffff16611c6082610ad1565b73ffffffffffffffffffffffffffffffffffffffff1614611cb6576040517f08c379a0000000000000000000000000000000000000000000000000000000008152600401611cad90613de7565b60405180910390fd5b600073ffffffffffffffffffffffffffffffffffffffff168273ffffffffffffffffffffffffffffffffffffffff1603611d25576040517f08c379a0000000000000000000000000000000000000000000000000000000008152600401611d1c90613e79565b60405180910390fd5b611d3283838360016122f7565b8273ffffffffffffffffffffffffffffffffffffffff16611d5282610ad1565b73ffffffffffffffffffffffffffffffffffffffff1614611da8576040517f08c379a0000000000000000000000000000000000000000000000000000000008152600401611d9f90613de7565b60405180910390fd5b6004600082815260200190815260200160002060006101000a81549073ffffffffffffffffffffffffffffffffffffffff02191690556001600360008573ffffffffffffffffffffffffffffffffffffffff1673ffffffffffffffffffffffffffffffffffffffff168152602001908152602001600020600082825403925050819055506001600360008473ffffffffffffffffffffffffffffffffffffffff1673ffffffffffffffffffffffffffffffffffffffff16815260200190815260200160002060008282540192505081905550816002600083815260200190815260200160002060006101000a81548173ffffffffffffffffffffffffffffffffffffffff021916908373ffffffffffffffffffffffffffffffffffffffff160217905550808273ffffffffffffffffffffffffffffffffffffffff168473ffffffffffffffffffffffffffffffffffffffff167fddf252ad1be2c89b69c2b068fc378daa952ba7f163c4a11628f55a4df523b3ef60405160405180910390a4611f3483838360016122fd565b505050565b60006002600083815260200190815260200160002060009054906101000a900473ffffffffffffffffffffffffffffffffffffffff169050919050565b611f7e611adc565b73ffffffffffffffffffffffffffffffffffffffff16611f9c6110cf565b73ffffffffffffffffffffffffffffffffffffffff1614611ff2576040517f08c379a0000000000000000000000000000000000000000000000000000000008152600401611fe990613ee5565b60405180910390fd5b565b6000600660009054906101000a900473ffffffffffffffffffffffffffffffffffffffff16905081600660006101000a81548173ffffffffffffffffffffffffffffffffffffffff021916908373ffffffffffffffffffffffffffffffffffffffff1602179055508173ffffffffffffffffffffffffffffffffffffffff168173ffffffffffffffffffffffffffffffffffffffff167f8be0079c531659141344cd1fd0a4f28419497f9722a3daafe3b4186f6b6457e060405160405180910390a35050565b8173ffffffffffffffffffffffffffffffffffffffff168373ffffffffffffffffffffffffffffffffffffffff1603612128576040517f08c379a000000000000000000000000000000000000000000000000000000000815260040161211f90613f51565b60405180910390fd5b80600560008573ffffffffffffffffffffffffffffffffffffffff1673ffffffffffffffffffffffffffffffffffffffff16815260200190815260200160002060008473ffffffffffffffffffffffffffffffffffffffff1673ffffffffffffffffffffffffffffffffffffffff16815260200190815260200160002060006101000a81548160ff0219169083151502179055508173ffffffffffffffffffffffffffffffffffffffff168373ffffffffffffffffffffffffffffffffffffffff167f17307eab39ab6107e8899845ad3d59bd9653f200f220920489ca2b5937696c31836040516122199190612880565b60405180910390a3505050565b612231848484611c40565b61223d84848484612303565b61227c576040517f08c379a000000000000000000000000000000000000000000000000000000000815260040161227390613fe3565b60405180910390fd5b50505050565b60008073ffffffffffffffffffffffffffffffffffffffff166122a483611f39565b73ffffffffffffffffffffffffffffffffffffffff1614159050919050565b6001816000016000828254019250508190555050565b6122f382826040518060200160405280600081525061248a565b5050565b50505050565b50505050565b60006123248473ffffffffffffffffffffffffffffffffffffffff166124e5565b1561247d578373ffffffffffffffffffffffffffffffffffffffff1663150b7a0261234d611adc565b8786866040518563ffffffff1660e01b815260040161236f9493929190614058565b6020604051808303816000875af19250505080156123ab57506040513d601f19601f820116820180604052508101906123a891906140b9565b60015b61242d573d80600081146123db576040519150601f19603f3d011682016040523d82523d6000602084013e6123e0565b606091505b506000815103612425576040517f08c379a000000000000000000000000000000000000000000000000000000000815260040161241c90613fe3565b60405180910390fd5b805181602001fd5b63150b7a0260e01b7bffffffffffffffffffffffffffffffffffffffffffffffffffffffff1916817bffffffffffffffffffffffffffffffffffffffffffffffffffffffff191614915050612482565b600190505b949350505050565b6124948383612508565b6124a16000848484612303565b6124e0576040517f08c379a00000000000000000000000000000000000000000000000000000000081526004016124d790613fe3565b60405180910390fd5b505050565b6000808273ffffffffffffffffffffffffffffffffffffffff163b119050919050565b600073ffffffffffffffffffffffffffffffffffffffff168273ffffffffffffffffffffffffffffffffffffffff1603612577576040517f08c379a000000000000000000000000000000000000000000000000000000000815260040161256e90614132565b60405180910390fd5b61258081612282565b156125c0576040517f08c379a00000000000000000000000000000000000000000000000000000000081526004016125b79061419e565b60405180910390fd5b6125ce6000838360016122f7565b6125d781612282565b15612617576040517f08c379a000000000000000000000000000000000000000000000000000000000815260040161260e9061419e565b60405180910390fd5b6001600360008473ffffffffffffffffffffffffffffffffffffffff1673ffffffffffffffffffffffffffffffffffffffff16815260200190815260200160002060008282540192505081905550816002600083815260200190815260200160002060006101000a81548173ffffffffffffffffffffffffffffffffffffffff021916908373ffffffffffffffffffffffffffffffffffffffff160217905550808273ffffffffffffffffffffffffffffffffffffffff16600073ffffffffffffffffffffffffffffffffffffffff167fddf252ad1be2c89b69c2b068fc378daa952ba7f163c4a11628f55a4df523b3ef60405160405180910390a46127216000838360016122fd565b5050565b82805482825590600052602060002090810192821561279e579160200282015b8281111561279d5782518260006101000a81548173ffffffffffffffffffffffffffffffffffffffff021916908373ffffffffffffffffffffffffffffffffffffffff16021790555091602001919060010190612745565b5b5090506127ab91906127af565b5090565b5b808211156127c85760008160009055506001016127b0565b5090565b6000604051905090565b600080fd5b600080fd5b60007fffffffff0000000000000000000000000000000000000000000000000000000082169050919050565b612815816127e0565b811461282057600080fd5b50565b6000813590506128328161280c565b92915050565b60006020828403121561284e5761284d6127d6565b5b600061285c84828501612823565b91505092915050565b60008115159050919050565b61287a81612865565b82525050565b60006020820190506128956000830184612871565b92915050565b600081519050919050565b600082825260208201905092915050565b60005b838110156128d55780820151818401526020810190506128ba565b60008484015250505050565b6000601f19601f8301169050919050565b60006128fd8261289b565b61290781856128a6565b93506129178185602086016128b7565b612920816128e1565b840191505092915050565b6000602082019050818103600083015261294581846128f2565b905092915050565b6000819050919050565b6129608161294d565b811461296b57600080fd5b50565b60008135905061297d81612957565b92915050565b600060208284031215612999576129986127d6565b5b60006129a78482850161296e565b91505092915050565b600073ffffffffffffffffffffffffffffffffffffffff82169050919050565b60006129db826129b0565b9050919050565b6129eb816129d0565b82525050565b6000602082019050612a0660008301846129e2565b92915050565b612a15816129d0565b8114612a2057600080fd5b50565b600081359050612a3281612a0c565b92915050565b60008060408385031215612a4f57612a4e6127d6565b5b6000612a5d85828601612a23565b9250506020612a6e8582860161296e565b9150509250929050565b612a818161294d565b82525050565b6000602082019050612a9c6000830184612a78565b92915050565b600080600060608486031215612abb57612aba6127d6565b5b6000612ac986828701612a23565b9350506020612ada86828701612a23565b9250506040612aeb8682870161296e565b9150509250925092565b600060208284031215612b0b57612b0a6127d6565b5b6000612b1984828501612a23565b91505092915050565b612b2b81612865565b8114612b3657600080fd5b50565b600081359050612b4881612b22565b92915050565b60008060408385031215612b6557612b646127d6565b5b6000612b7385828601612a23565b9250506020612b8485828601612b39565b9150509250929050565b600080fd5b600080fd5b7f4e487b7100000000000000000000000000000000000000000000000000000000600052604160045260246000fd5b612bd0826128e1565b810181811067ffffffffffffffff82111715612bef57612bee612b98565b5b80604052505050565b6000612c026127cc565b9050612c0e8282612bc7565b919050565b600067ffffffffffffffff821115612c2e57612c2d612b98565b5b612c37826128e1565b9050602081019050919050565b82818337600083830152505050565b6000612c66612c6184612c13565b612bf8565b905082815260208101848484011115612c8257612c81612b93565b5b612c8d848285612c44565b509392505050565b600082601f830112612caa57612ca9612b8e565b5b8135612cba848260208601612c53565b91505092915050565b60008060008060808587031215612cdd57612cdc6127d6565b5b6000612ceb87828801612a23565b9450506020612cfc87828801612a23565b9350506040612d0d8782880161296e565b925050606085013567ffffffffffffffff811115612d2e57612d2d6127db565b5b612d3a87828801612c95565b91505092959194509250565b60008060408385031215612d5d57612d5c6127d6565b5b6000612d6b8582860161296e565b9250506020612d7c8582860161296e565b9150509250929050565b600081519050919050565b600082825260208201905092915050565b6000819050602082019050919050565b612dbb8161294d565b82525050565b6000612dcd8383612db2565b60208301905092915050565b6000602082019050919050565b6000612df182612d86565b612dfb8185612d91565b9350612e0683612da2565b8060005b83811015612e37578151612e1e8882612dc1565b9750612e2983612dd9565b925050600181019050612e0a565b5085935050505092915050565b60006020820190508181036000830152612e5e8184612de6565b905092915050565b600067ffffffffffffffff821115612e8157612e80612b98565b5b612e8a826128e1565b9050602081019050919050565b6000612eaa612ea584612e66565b612bf8565b905082815260208101848484011115612ec657612ec5612b93565b5b612ed1848285612c44565b509392505050565b600082601f830112612eee57612eed612b8e565b5b8135612efe848260208601612e97565b91505092915050565b60008060008060008060c08789031215612f2457612f236127d6565b5b600087013567ffffffffffffffff811115612f4257612f416127db565b5b612f4e89828a01612ed9565b965050602087013567ffffffffffffffff811115612f6f57612f6e6127db565b5b612f7b89828a01612ed9565b955050604087013567ffffffffffffffff811115612f9c57612f9b6127db565b5b612fa889828a01612ed9565b9450506060612fb989828a0161296e565b9350506080612fca89828a0161296e565b92505060a087013567ffffffffffffffff811115612feb57612fea6127db565b5b612ff789828a01612ed9565b9150509295509295509295565b6000806040838503121561301b5761301a6127d6565b5b600061302985828601612a23565b925050602061303a85828601612a23565b9150509250929050565b600061010082019050818103600083015261305f818b6128f2565b90508181036020830152613073818a6128f2565b9050818103604083015261308781896128f2565b90506130966060830188612a78565b6130a36080830187612a78565b81810360a08301526130b581866128f2565b90506130c460c0830185612a78565b6130d160e0830184612a78565b9998505050505050505050565b7f4e487b7100000000000000000000000000000000000000000000000000000000600052602260045260246000fd5b6000600282049050600182168061312557607f821691505b602082108103613138576131376130de565b5b50919050565b7f4552433732313a20617070726f76616c20746f2063757272656e74206f776e6560008201527f7200000000000000000000000000000000000000000000000000000000000000602082015250565b600061319a6021836128a6565b91506131a58261313e565b604082019050919050565b600060208201905081810360008301526131c98161318d565b9050919050565b7f4552433732313a20617070726f76652063616c6c6572206973206e6f7420746f60008201527f6b656e206f776e6572206f7220617070726f76656420666f7220616c6c000000602082015250565b600061322c603d836128a6565b9150613237826131d0565b604082019050919050565b6000602082019050818103600083015261325b8161321f565b9050919050565b7f4552433732313a2063616c6c6572206973206e6f7420746f6b656e206f776e6560008201527f72206f7220617070726f76656400000000000000000000000000000000000000602082015250565b60006132be602d836128a6565b91506132c982613262565b604082019050919050565b600060208201905081810360008301526132ed816132b1565b9050919050565b7f4552433732313a20696e76616c696420746f6b656e2049440000000000000000600082015250565b600061332a6018836128a6565b9150613335826132f4565b602082019050919050565b600060208201905081810360008301526133598161331d565b9050919050565b7f4552433732313a2061646472657373207a65726f206973206e6f74206120766160008201527f6c6964206f776e65720000000000000000000000000000000000000000000000602082015250565b60006133bc6029836128a6565b91506133c782613360565b604082019050919050565b600060208201905081810360008301526133eb816133af565b9050919050565b7f596f7520616c7265616479206f776e20746869732070726f7065727479000000600082015250565b6000613428601d836128a6565b9150613433826133f2565b602082019050919050565b600060208201905081810360008301526134578161341b565b9050919050565b7f4d6178696d756d2070726f7065727479206c696d697420726561636865640000600082015250565b6000613494601e836128a6565b915061349f8261345e565b602082019050919050565b600060208201905081810360008301526134c381613487565b9050919050565b7f50726f7065727479206973206c6f636b65640000000000000000000000000000600082015250565b60006135006012836128a6565b915061350b826134ca565b602082019050919050565b6000602082019050818103600083015261352f816134f3565b9050919050565b7f4e487b7100000000000000000000000000000000000000000000000000000000600052601160045260246000fd5b60006135708261294d565b915061357b8361294d565b925082820190508082111561359357613592613536565b5b92915050565b7f436f6f6c646f776e2074696d65206e6f74207265616368656400000000000000600082015250565b60006135cf6019836128a6565b91506135da82613599565b602082019050919050565b600060208201905081810360008301526135fe816135c2565b9050919050565b7f496e73756666696369656e742066756e647320746f207075726368617365207460008201527f6869732070726f70657274790000000000000000000000000000000000000000602082015250565b6000613661602c836128a6565b915061366c82613605565b604082019050919050565b6000602082019050818103600083015261369081613654565b9050919050565b60006136a28261294d565b91507fffffffffffffffffffffffffffffffffffffffffffffffffffffffffffffffff82036136d4576136d3613536565b5b600182019050919050565b60006136ea8261294d565b9150600082036136fd576136fc613536565b5b600182039050919050565b600060608201905061371d6000830186612a78565b61372a60208301856129e2565b61373760408301846129e2565b949350505050565b7f596f7520617265206e6f7420746865206f776e6572206f66207468697320707260008201527f6f70657274790000000000000000000000000000000000000000000000000000602082015250565b600061379b6026836128a6565b91506137a68261373f565b604082019050919050565b600060208201905081810360008301526137ca8161378e565b9050919050565b60006040820190506137e66000830185612a78565b6137f36020830184612a78565b9392505050565b7f546f6b656e20646f6573206e6f74206578697374000000000000000000000000600082015250565b60006138306014836128a6565b915061383b826137fa565b602082019050919050565b6000602082019050818103600083015261385f81613823565b9050919050565b600081905092915050565b7f687474703a2f2f6c6f63616c686f73743a383038302f697066732f0000000000600082015250565b60006138a7601b83613866565b91506138b282613871565b601b82019050919050565b60008190508160005260206000209050919050565b600081546138df8161310d565b6138e98186613866565b9450600182166000811461390457600181146139195761394c565b60ff198316865281151582028601935061394c565b613922856138bd565b60005b8381101561394457815481890152600182019150602081019050613925565b838801955050505b50505092915050565b60006139608261389a565b915061396c82846138d2565b915081905092915050565b7f4e487b7100000000000000000000000000000000000000000000000000000000600052603260045260246000fd5b7f496e76616c6964206d6574616461746120434944000000000000000000000000600082015250565b60006139dc6014836128a6565b91506139e7826139a6565b602082019050919050565b60006020820190508181036000830152613a0b816139cf565b9050919050565b60006020601f8301049050919050565b600082821b905092915050565b600060088302613a5f7fffffffffffffffffffffffffffffffffffffffffffffffffffffffffffffffff82613a22565b613a698683613a22565b95508019841693508086168417925050509392505050565b6000819050919050565b6000613aa6613aa1613a9c8461294d565b613a81565b61294d565b9050919050565b6000819050919050565b613ac083613a8b565b613ad4613acc82613aad565b848454613a2f565b825550505050565b600090565b613ae9613adc565b613af4818484613ab7565b505050565b5b81811015613b1857613b0d600082613ae1565b600181019050613afa565b5050565b601f821115613b5d57613b2e816138bd565b613b3784613a12565b81016020851015613b46578190505b613b5a613b5285613a12565b830182613af9565b50505b505050565b600082821c905092915050565b6000613b8060001984600802613b62565b1980831691505092915050565b6000613b998383613b6f565b9150826002028217905092915050565b613bb28261289b565b67ffffffffffffffff811115613bcb57613bca612b98565b5b613bd5825461310d565b613be0828285613b1c565b600060209050601f831160018114613c135760008415613c01578287015190505b613c0b8582613b8d565b865550613c73565b601f198416613c21866138bd565b60005b82811015613c4957848901518255600182019150602085019450602081019050613c24565b86831015613c665784890151613c62601f891682613b6f565b8355505b6001600288020188555050505b505050505050565b600060a082019050613c906000830188612a78565b8181036020830152613ca281876128f2565b90508181036040830152613cb681866128f2565b9050613cc56060830185612a78565b8181036080830152613cd781846128f2565b90509695505050505050565b7f4f776e61626c653a206e6577206f776e657220697320746865207a65726f206160008201527f6464726573730000000000000000000000000000000000000000000000000000602082015250565b6000613d3f6026836128a6565b9150613d4a82613ce3565b604082019050919050565b60006020820190508181036000830152613d6e81613d32565b9050919050565b7f4552433732313a207472616e736665722066726f6d20696e636f72726563742060008201527f6f776e6572000000000000000000000000000000000000000000000000000000602082015250565b6000613dd16025836128a6565b9150613ddc82613d75565b604082019050919050565b60006020820190508181036000830152613e0081613dc4565b9050919050565b7f4552433732313a207472616e7366657220746f20746865207a65726f2061646460008201527f7265737300000000000000000000000000000000000000000000000000000000602082015250565b6000613e636024836128a6565b9150613e6e82613e07565b604082019050919050565b60006020820190508181036000830152613e9281613e56565b9050919050565b7f4f776e61626c653a2063616c6c6572206973206e6f7420746865206f776e6572600082015250565b6000613ecf6020836128a6565b9150613eda82613e99565b602082019050919050565b60006020820190508181036000830152613efe81613ec2565b9050919050565b7f4552433732313a20617070726f766520746f2063616c6c657200000000000000600082015250565b6000613f3b6019836128a6565b9150613f4682613f05565b602082019050919050565b60006020820190508181036000830152613f6a81613f2e565b9050919050565b7f4552433732313a207472616e7366657220746f206e6f6e20455243373231526560008201527f63656976657220696d706c656d656e7465720000000000000000000000000000602082015250565b6000613fcd6032836128a6565b9150613fd882613f71565b604082019050919050565b60006020820190508181036000830152613ffc81613fc0565b9050919050565b600081519050919050565b600082825260208201905092915050565b600061402a82614003565b614034818561400e565b93506140448185602086016128b7565b61404d816128e1565b840191505092915050565b600060808201905061406d60008301876129e2565b61407a60208301866129e2565b6140876040830185612a78565b8181036060830152614099818461401f565b905095945050505050565b6000815190506140b38161280c565b92915050565b6000602082840312156140cf576140ce6127d6565b5b60006140dd848285016140a4565b91505092915050565b7f4552433732313a206d696e7420746f20746865207a65726f2061646472657373600082015250565b600061411c6020836128a6565b9150614127826140e6565b602082019050919050565b6000602082019050818103600083015261414b8161410f565b9050919050565b7f4552433732313a20746f6b656e20616c7265616479206d696e74656400000000600082015250565b6000614188601c836128a6565b915061419382614152565b602082019050919050565b600060208201905081810360008301526141b78161417b565b905091905056fea26469706673582212203f190eebf3d3134ea3254d300d0dade3ffb31a17a1d2a0a9cdbb34cbe06b51ea64736f6c634300081c0033",
  "linkReferences": {},
  "deployedLinkReferences": {}
}